:020000040800F2
:10000000A8020020890100080D0500080F0500085E
:1000100013050008170500081B0500080000000074
:100020000000000000000000000000001F050008A4
:100030002105000800000000230500082505000830
:100040009F0100089F0100089F0100089F01000810
:100050009F0100089F0100089F0100089F01000800
:100060009F0100089F0100089F0100089F010008F0
:100070009F0100089F0100089F0100089F010008E0
:100080009F0100089F0100089F0100089F010008D0
:100090009F0100089F0100089F0100089F010008C0
:1000A0009F0100089F0100089F0100089F010008B0
:1000B0009F0100089F010008000000009F01000848
:1000C0009F01000800000000000000009F010008E0
:1000D0009F0100089F0100089F0100080000000028
:1000E0009F0100089F0100089F01000800F002F82E
:1000F00000F03CF80AA090E8000C82448344AAF186
:100100000107DA4501D100F031F8AFF2090EBAE883
:100110000F0013F0010F18BFFB1A43F0010318473B
:100120007428000094280000103A24BF78C878C1D1
:10013000FAD8520724BF30C830C144BF04680C60ED
:10014000704700000023002400250026103A28BF35
:1001500078C1FBD8520728BF30C148BF0B60704739
:100160001FB5AFF300801FBD10B510BD01F086FEB6
:100170001146FFF7F5FF00F0D7F901F0A4FEFFF7F5
:10018000F3FF00F069F8000008480047FEE7FEE7CB
:10019000FEE7FEE7FEE7FEE7FEE7FEE7FEE7FEE737
:1001A00003480449024A044B70470000ED00000870
:1001B000A8000020A8020020A80000204FF0E021A5
:1001C000096921F004014FF0E02211610146C217D4
:1001D00000EB5272D2101F4B1A70194609784FF477
:1001E0007A7251439A1C118070471A4A921C1288E5
:1001F00042434FF0E0235A6100229A6101221A61C2
:1002000000BF4FF0E022116911F0010F02D011F48C
:10021000803FF6D000224FF0E0231A619A617047C8
:100220000C4A127842434FF0E0235A6100229A614F
:1002300001221A6100BF4FF0E022116911F0010F95
:1002400002D011F4803FF6D000224FF0E0231A6173
:100250009A61704700000020014600BF704700BF50
:10026000324A128812F0400FFAD0C2B22F4B1B1D37
:100270001A8070472DE9F05F04460D46280102F010
:10028000B0F981462A4904FB01F002F0AAF982463E
:10029000494602F06FF80646304602F05DF987B233
:1002A000384602F09EF98346314602F048FA82460B
:1002B0004FF0834102F09AF9814602F04DF98046F1
:1002C0003F0107EB080087B21A48806940F004003C
:1002D000184988610846806940F480408861164862
:1002E000006820F47F601549C1F804080846D0F87A
:1002F000040840F40B60C1F804080E48C06840F4DC
:1003000080400C49C8600846C06820F48040C8603E
:100310000B48A0F8087805480C30008842F20C0120
:10032000084302490C310880BDE8F09F00380140C5
:1003300040420F000010024004080140000001404C
:100340000030014000200021674A126842F48032E8
:10035000654B1A6000BF644A126802F40031401C09
:1003600011B9B0F5A06FF6D15F4A126812F4003FE0
:1003700001D0012100E00021012942D15B4A12682D
:1003800042F01002594B1A601A46126822F003021A
:100390001A601A46126842F002021A60524A526803
:1003A000514B5A601A4652685A601A46526842F4D3
:1003B00080625A601A46526822F47C125A601A46C9
:1003C000526842F4E8125A601A46126842F080728B
:1003D0001A6000BF444A126812F0007FFAD0424A05
:1003E000526822F00302404B5A601A46526842F0AB
:1003F00002025A6000BF3C4A526802F00C02082A0E
:10040000F9D1704710B5FFF79DFF10BD10B5364804
:10041000006840F0010034490860084640683449EB
:1004200008403149486008460068324908402E4972
:1004300008600846006820F480200860084640688C
:1004400020F4FE0048604FF41F008860FFF7DAFFD9
:100450004FF000602849086010BD10B50020002151
:100460000022214B5B6803F00C0020B1042806D069
:10047000082828D107E0214B214C236027E01F4B9F
:100480001F4C236023E0184B5B6803F47011164B7C
:100490005B6803F48032022303EB914122B9194BCC
:1004A0004B43174C23600DE00F4B5B6813F4003F88
:1004B00004D0144B4B43124C236003E00F4B4B43CF
:1004C0000F4C236003E00D4B0D4C236000BF00BFB9
:1004D000054B5B68C3F303130B4CE05C084B1B68D4
:1004E000C340074C236010BD0010024000200240B2
:1004F0000000FFF8FFFFF6FE08ED00E000127A00B2
:100500000800002000093D000C000020704700BFDB
:10051000FEE700BFFEE700BFFEE700BFFEE7704753
:1005200070477047704700001FB500BF00BFFFF75E
:100530006DFF4820FFF742FE4FF416514820FFF7A9
:1005400099FE01F0E7FB01F001F901F0A3FB00F0D7
:10055000C9FA01F0FAFA3CA001F052FC73E00A215A
:10056000082001F030FC3A490880088801F016FDA7
:10057000CDE9020137A00CC8029801F015FDCDE9C4
:10058000000101F0BBFC32494880088801F006FDFB
:10059000CDE9020131A00CC8029801F005FDCDE9BA
:1005A000000101F0ABFC2A4988800A4651882D4A97
:1005B000108801F055FB264A91882A4A508801F09C
:1005C0004FFB0120284908602848D0F8140190B951
:1005D000002008602548D0F8140160B92248883806
:1005E000006840B9002022490860194A51881D4A14
:1005F000108801F035FB1648008815494988884263
:1006000006DD00201A49203908601A49C1F89C010A
:100610000F4800880E498988884206DD0020144969
:10062000203908601349C1F89C0109480088B0F5D9
:10063000FA7F08DD00200E49203908600D49C1F815
:100640009C010B4908608AE7496E6974204F4B0092
:1006500024000020000000000000E83F3333333363
:100660003333EB3F1E00002088012142000021426D
:10067000B88121420080214210B50446F7488442E7
:1006800008D10121401501F019F80021601501F091
:1006900015F817E0F248844208D10121001501F055
:1006A0000DF80021201501F009F80BE0ED48844217
:1006B00008D10121C80301F001F800214FF40040E6
:1006C00000F0FCFF10BD30B5002200234268E64C6C
:1006D00022400D790C6844EA052422434260826876
:1006E000E24C2240D1E902542C434D7944EA4504BE
:1006F00022438260C26A22F470020C7C641EE4B25F
:10070000234342EA0352C26230BD002101600171FD
:1007100041718160C16001210174704721B182681B
:1007200042F00102826003E0826822F001028260EE
:10073000704721B1826842F48072826003E082686F
:1007400022F480728260704710B50023CBB21AB1D8
:1007500044681C43446002E044689C43446010BD0C
:10076000816841F0080181607047014600208A6875
:1007700012F0080F01D0012000E0002070478168CE
:1007800041F0040181607047014600208A6812F040
:10079000040F01D0012000E00020704721B18268E1
:1007A00042F4A002826003E0826822F4A002826028
:1007B0007047014600208A6812F4800F01D00120A2
:1007C00000E00020704710B500220023426822F4A8
:1007D00060424B1E42EA4332426010BD21B1426882
:1007E00042F40062426003E0426822F40062426028
:1007F0007047F0B500240025092911DDC468A1F176
:100800000A0606EB4607072606FA07F5AC43A1F1F0
:100810000A0606EB460603FA06F52C43C4600CE014
:10082000046901EB4107072606FA07F5AC4301EB23
:10083000410603FA06F52C430461072A0FDA446BDC
:10084000561E06EB86071F2606FA07F5AC43561E12
:1008500006EB860601FA06F52C43446322E00D2AD6
:100860000FDA046BD61F06EB86071F2606FA07F57C
:10087000AC43D61F06EB860601FA06F52C4304634B
:1008800010E0C46AA2F10D0606EB86071F2606FAE1
:1008900007F5AC43A2F10D0606EB860601FA06F554
:1008A0002C43C462F0BD21B1826842F480128260A0
:1008B00003E0826822F48012826070470146C86CAF
:1008C00080B2704765484C300068704721B142687B
:1008D00042F48062426003E0426822F48062426037
:1008E000704721B1426842F48052426003E042689E
:1008F00022F48052426070470022826822F4E04273
:100900000A438260704721B1826842F400428260EB
:1009100003E0826822F400428260704721B182685D
:1009200042F40212826003E0826822F402128260C2
:100930007047014600208A6812F4001F01D0012090
:1009400000E000207047F0B50024002500260929AA
:1009500011DDC468A1F10A0707EB470C072707FA66
:100960000CF5AC43A1F10A0707EB470703FA07F5BB
:100970002C43C4600CE0046901EB410C072707FA23
:100980000CF5AC4301EB410703FA07F52C43046176
:10099000846BC4F30156D71C06F1010CA7EB0C07BE
:1009A00007EB870C1F2707FA0CF5AC43D71C06F1A1
:1009B000010CA7EB0C0707EB870701FA07F52C439F
:1009C0008463F0BD10B500220023826B22F4401234
:1009D0004B1E42EA0352826310BD10B5002303464A
:1009E00018460B441A6010BD0246002313461A46EF
:1009F00001F128000344186880B270470022426861
:100A00001B4B1A400A434260704741628262704742
:100A10000022426822F01F020A434260704740B140
:100A20000E490831096841F40001124AC2F808145D
:100A300007E00A490831096821F400010D4AC2F8AB
:100A4000081470470246002013680B4201D00120B1
:100A500000E000207047CA43026070470024014054
:100A600000280140003C0140FFFEF0FFFDF7F1FFD0
:100A7000FFFD3FFF0020014070B50246002000232B
:100A800000240B125568CEB205EA060415681D4213
:100A900002D00CB1012000E0002070BD00220A123B
:100AA000D3430360704700000021FF4A116801F042
:100AB0003801014311607047FB49096821F00801C2
:100AC000F94A116011460968014311607047F649FF
:100AD000096821F01001F44A1160114609680143C8
:100AE00011607047F148F0494860F148486070472C
:100AF000EE48ED494860EE4848607047EA480069B2
:100B000040F08000E84908617047E748006940F01C
:100B10008000E549086170470420E349C96801F095
:100B20000101012901D101200EE0DF49C96811F05E
:100B3000040F01D0022007E0DB49C96811F0100F53
:100B400001D0032000E00420704700B502460423D2
:100B5000FFF7E2FF034603E0FFF7DEFF0346521E06
:100B6000012B01D1002AF7D102B90523184600BD97
:100B700030B5044604254FF43020FFF7E6FF054664
:100B8000042D17D1C848006940F00200C649086129
:100B900008464461006940F0400008614FF430208D
:100BA000FFF7D3FF0546C048006941F6FD710840D4
:100BB000BD490861284630BD10B504244FF43020EB
:100BC000FFF7C3FF0446042C16D1B748006940F074
:100BD0000400B54908610846006940F0400008611A
:100BE0004FF43020FFF7B1FF0446AF48006941F6EB
:100BF000FB710840AC490861204610BD00B50246B3
:100C00000423FFF789FF034603E0FFF785FF034650
:100C1000521E012B01D1002AF7D102B90523184633
:100C200000BD10B504244FF43020FFF7E7FF044661
:100C3000042C16D19C48006940F004009A490861D0
:100C40000846006940F0400008614FF43020FFF78B
:100C5000D5FF04469448006941F6FB71084092496B
:100C60000861204610BD00208F49C96911F0020FAC
:100C700001D0012000E00020704730B5A5240425F4
:100C8000FFF7F1FF00B100244FF43020FFF75DFFC4
:100C90000546042D3AD18548834988608448886098
:100CA0000846006940F0200008610846006940F0ED
:100CB000400008614FF43020FFF747FF0546042D40
:100CC0001BD17948006941F6DF7108407649086117
:100CD0000846006940F01000086176480480E80288
:100CE000FFF733FF0546052D10D06F48006941F628
:100CF000EF7108406C49086108E0052D06D06A488C
:100D0000006941F6EF71084067490861284630BD27
:100D1000F0B504460D4604260027F002FFF715FF44
:100D20000646042E22D16048006940F001005E4969
:100D300008612580F002FFF708FF0646042E0ED159
:100D4000A71C280C3880F002FFF7FFFE0646564825
:100D5000006941F6FE7108405349086106E05248B7
:100D6000006941F6FE7108404F4908613046F0BD08
:100D700070B504460D460426F002FFF7E6FE06466F
:100D8000042E11D14848006940F00100464908612D
:100D90002580F002FFF7D9FE06464348006941F678
:100DA000FE71084040490861304670BD70B5044688
:100DB0000D460426F002FFF7C8FE0646042E17D1A2
:100DC0003A48394988603A4888600846006940F0E6
:100DD000100008612580F002FFF7B7FE0646052ED9
:100DE00006D03148006941F6EF7108402E4908618C
:100DF000304670BD2DE9F04304464FF6FF752E4690
:100E00002F46A8464FF00409E443E5B2C4F3072691
:100E1000C4F307474FEA14684FF40050FFF795FEFC
:100E20008146B9F1040F50D120481F4988602048FD
:100E300088600846006940F010000861FF2D07D067
:100E40001C48083005804FF40050FFF77EFE8146B5
:100E5000B9F1040F09D1FF2E07D016480A300680D9
:100E60004FF40050FFF771FE8146B9F1040F09D12C
:100E7000FF2F07D00F480C3007804FF40050FFF7CA
:100E800064FE8146B9F1040F0AD1B8F1FF0F07D013
:100E90000948A0F80E884FF40050FFF756FE81462F
:100EA000B9F1050F11D009E0002002402301674588
:100EB000AB89EFCD00F8FF1F00F0FF1F6948006904
:100EC00041F6EF710840674908614846BDE8F08384
:100ED00030B5044604254FF43020FFF736FE0546B2
:100EE000042D41D160485F498860604888600846A9
:100EF000006940F0200008610846006940F04000A9
:100F000008614FF43020FFF720FE0546042D22D162
:100F10005448006941F6DF710840524908610846AB
:100F2000006940F0100008611CB1002050490880A1
:100F300002E0A5204E4908804FF43020FFF705FE5F
:100F40000546052D10D04748006941F6EF7108406D
:100F50004449086108E0052D06D04248006941F681
:100F6000DF7108403F490861284630BDF0B50446AE
:100F70000D46164604273C483A4988603B4888603D
:100F8000F802FFF7E2FD0746042F19D13548006942
:100F900040F010003349086146F0F8002843204330
:100FA0003349891C0880F802FFF7CFFD0746052F5B
:100FB00006D02C48006941F6EF71084029490861C4
:100FC0003846F0BD2748C069800870472548006A48
:100FD000704700202349096811F0200F01D001203B
:100FE00000E00020704729B11E4A126902431D4BE0
:100FF0001A6104E01B4A126982431A4B1A61704756
:1010000001460020012908D1164AD26912F0010FC9
:1010100001D0012008E0002006E0124AD2680A420E
:1010200001D0012000E0002070470E49C8607047E1
:1010300004200C49C96801F00101012901D10120F6
:101040000EE00849C96811F0040F01D0022007E042
:101050000449C96811F0100F01D0032000E00420FA
:10106000704700000020024023016745AB89EFCDA7
:1010700000F8FF1F10B50446C748844208D101217B
:10108000042000F01BFB0021042000F017FB46E0C9
:10109000C248844208D10121082000F00FFB002142
:1010A000082000F00BFB3AE0BD48844208D1012142
:1010B000102000F003FB0021102000F0FFFA2EE0CA
:1010C000B848844208D10121202000F0F7FA00211D
:1010D000202000F0F3FA22E0B348844208D1012135
:1010E000402000F0EBFA0021402000F0E7FA16E083
:1010F000AE48844208D10121802000F0DFFA0021AF
:10110000802000F0DBFA0AE0A948844207D10121DF
:10111000801500F0D3FA0021A01500F0CFFA10BD21
:1011200010B50121084600F0C9FA0021012000F0A5
:10113000C5FA10BDF0B500220023002400250026CA
:10114000002791F803C00CF00F0291F803C01CF0C7
:10115000100F03D091F802C04CEA0202B1F800C0AF
:101160001CF0FF0F31D0066800242BE04FF0010C7B
:101170000CFA04F5B1F800C00CEA0503AB4220D12B
:10118000A5004FF00F0C0CFA05F7BE4302FA05FC60
:101190004CEA060691F803C0BCF1280F06D14FF0C7
:1011A000010C0CFA04FCC0F814C00AE091F803C06A
:1011B000BCF1480F05D14FF0010C0CFA04FCC0F84B
:1011C00010C0641C082CD1D30660B1F800C0BCF17B
:1011D000FF0F34DD466800242EE004F1080C4FF0C8
:1011E000010E0EFA0CF5B1F800C00CEA0503AB4293
:1011F00021D1A5004FF00F0C0CFA05F7BE4302FAFF
:1012000005FC4CEA060691F803C0BCF1280F05D195
:1012100004F1080C0EFA0CFEC0F814E091F803C0BB
:10122000BCF1480F07D104F1080C4FF0010E0EFA83
:101230000CFEC0F810E0641C082CCED34660F0BD54
:101240004FF6FF710180022181700421C170704747
:101250000246002093680B4201D0012000E00020EC
:1012600070470146886880B2704702460020D36804
:101270000B4201D0012000E0002070470146C86801
:1012800080B2704701617047416170470AB10161E6
:1012900000E041617047C16070474FF480320A43FB
:1012A0008261816182618269826970470022414B5B
:1012B0001A684FF680731A4042EA00120A433D4B07
:1012C0001A6070473C49C8617047F0B5002200239E
:1012D0000024002500F00046B6F1004F02D1354E43
:1012E000F46901E0334E7468C0F3034582B200F440
:1012F0004016B6F5401F08D124F070642D4E766874
:1013000026F070662B4F7E6012E000F48016B6F572
:10131000801F06D1032606FA05F39C4344F070644F
:1013200006E0460D360102FA06F6B44344F0706456
:1013300021B1460D360102FA06F6344300F00046AC
:10134000B6F1004F02D11B4EF46101E0194E7460FA
:10135000F0BD30B500228B071C0F0F2303FA04F2F7
:10136000144B08338C1053F8244094438D1043F8E9
:1013700025408C1053F824308C07240F00FA04F415
:1013800023430C4C08348D1044F8253030BD0A49F5
:10139000DC3108607047000000080140000C01408B
:1013A000001001400014014000180140001C0140E1
:1013B000002001400000014000002042DB4800689E
:1013C00040F00100D949086008464068D849084003
:1013D000D649486008460068D6490840D3490860A5
:1013E0000846006820F4802008600846406820F421
:1013F000FE0048604FF41F0088607047CB490968C1
:1014000021F48031C94A11601146096821F4802114
:101410001160B0F5803F03D0B0F5802F0ED106E00B
:10142000C249096841F48031C04A116007E0BF49F0
:10143000096841F4A021BD4A116000E000BF00BF6F
:10144000704710B501460022002300204A11012AEE
:1014500002D1B64C236806E0022A02D1B34C236ABB
:1014600001E0B24C636A01F01F02012494401C4267
:1014700001D0012000E0002010BD70B5002400253F
:10148000002600BF3120FFF7DCFF0646641CB4F5E0
:10149000A06F01D0002EF5D03120FFF7D2FF08B1A8
:1014A000012500E00025284670BD00219F4A1168F3
:1014B00021F0F80141EAC001116070479E490860BF
:1014C00070470022994B5A6822F47C1240EA0103CB
:1014D0001A43964B5A607047974908667047002137
:1014E000924A516821F003010143516070478F48CF
:1014F000406800F00C00704700218C4A516821F0D0
:10150000F0010143516070470021884A516821F47D
:10151000E0610143516070470021844A516821F421
:10152000605141EAC0015160704729B17F4A527A47
:1015300002437E4B5A7206E07C4A527AC343DBB2C6
:101540001A407A4B5A7270477B49D831086070470D
:101550000021764A516821F44041014351607047AF
:101560000021724A20321170704A82F8201001283E
:1015700002D004280AD104E001216C4A2032117003
:1015800005E00521694A2032117000E000BF00BF6C
:1015900070476A49086070476449096A0143634AB1
:1015A00011627047654944390860704730B50021C1
:1015B0000022002300245D4D6D6805F00C0121B16F
:1015C000042905D0082923D105E05D4D056022E0FE
:1015D0005B4D05601FE0554D6D6805F47012534D6D
:1015E0006D6805F48033022505EB92421BB9554D19
:1015F000554305600BE04D4D6D6815F4003F03D079
:10160000504D5543056002E04D4D5543056002E0E5
:101610004B4D056000BF00BF444D6D6805F0F00103
:101620000909494D6C5C0568E54045603F4D6D68B2
:1016300005F4E061090A444D6C5C4568E54085604D
:101640003A4D6D6805F46051C90A3F4D6C5C4568C0
:10165000E540C560354D6D6805F44041890B3A4D54
:1016600010356C5CC568B5FBF4F5056130BD29B17A
:101670002E4A526902432D4B5A6104E02B4A5269AB
:1016800082432A4B5A61704729B1284A9269024322
:10169000264B9A6104E0254A92698243234B9A6162
:1016A000704729B1214AD2690243204BDA6104E034
:1016B0001E4AD26982431D4BDA61704729B11B4A29
:1016C000D2680243194BDA6004E0184AD2688243B8
:1016D000164BDA60704729B1144A12690243134B62
:1016E0001A6104E0114A12698243104B1A61704773
:1016F00012494039086070470F49C86470470B4968
:10170000C87170470948406A40F0807007494862D4
:10171000704701460020054A92680A4201D0012024
:1017200000E00020704701498872704700100240B5
:101730000000FFF8FFFFF6FE000042428004424234
:1017400000127A0000093D002A00002008B501219E
:101750000820FFF799FF4FF46040ADF8000010201B
:101760008DF8030003208DF8020069460448FFF756
:10177000E1FC4FF460410248FFF784FD08BD000022
:10178000000C0140014606220623FF480288FE485D
:101790001030B0F8F037A1B101291AD133B9A2F550
:1017A0006E40EE3800D170470120FCE73AB9A3F54E
:1017B0006E40EE3801D10120F5E70020F3E7AB20C1
:1017C000F1E70AB90020EEE70BB90120EBE7AB2007
:1017D000E9E70020E7E770B5042400250120FFF7C2
:1017E000D1FF0546AB2D06D1E74901EBC520E749FE
:1017F0000860AB2070BDE44901EBC520E3490860F7
:10180000681CE149891E01EBC0260CE0DF48006836
:101810000068401C02D104242046EBE7DB48006846
:10182000001DDA490860D9480068B042EED3802034
:10183000E0E710B50424D448FFF79AF90446042CD5
:1018400001D0204610BD0021CF48FFF791FA044691
:10185000042C01D02046F5E7CD48FFF789F904466E
:101860002046EFE72DE9F04104460D460426002707
:10187000DFF81C8308F10F080120FFF783FF0746FC
:10188000AB2F01D1BDE8F081781CBF49891E01EB67
:10189000C02821E0BD4800680068401C17D12946D7
:1018A000BA480068FFF764FA0646042E01D03046B5
:1018B000E8E72146B5480068801CFFF759FA06465C
:1018C000B2480068001DB14908603046DAE7AF4809
:1018D0000068001DAD490860AC4800684045D9D398
:1018E0008020CFE72DE9F04704460D46002645F25B
:1018F00055574FF00109DFF890A20AF1100AD046BF
:101900000020FFF73FFF0646AB2E01D1BDE8F08770
:101910009D4901EBC6289D480068A0F1020A0BE032
:10192000BAF80070A74205D13AF8020C28804FF0AF
:10193000000905E0AAF1040A08F102008245EFD887
:1019400000BF4846E2E72DE9F047062406250026B9
:1019500000274FF000084FF0FF398B4804888A4871
:101960001030B0F8F05720006FD0A0F56E40EE3880
:101970002ED0A0F58850113868D14DB98248FFF7B4
:10198000F7F88246BAF1040F21D05046BDE8F0873F
:10199000A5F56E40EE3812D17B48FFF7E9F8824694
:1019A000BAF1040F01D05046F0E700217848FFF764
:1019B000DFF98246BAF1040F09D05046E6E7FFF797
:1019C00038FF8246BAF1040F01D05046DEE7B9E095
:1019D000002D3CD1002623E06B48801D00886D4916
:1019E00031F81610884201D10FFA86F94E4515D00C
:1019F000684931F816006849FFF774FF8046B8F16E
:101A0000010F0BD0634931F8160063490988FFF7CD
:101A100029FF0746042F01D03846B7E7701C86B26D
:101A2000032ED9DB00215848FFF7A2F98246BAF10C
:101A3000040F01D05046A9E75548FFF799F88246B0
:101A4000BAF1040F22D05046A0E720E071E0A5F5DE
:101A50007F40FF3812D14E48FFF78AF88246BAF12C
:101A6000040F01D0504691E700214748FFF780F965
:101A70008246BAF1040F09D0504687E7FFF7D9FE36
:101A80008246BAF1040F01D050467FE75AE03DB9D3
:101A9000FFF7CFFE8246BAF1040F49D0504675E7F2
:101AA000A5F57F40FF3808D13948FFF761F8824635
:101AB000BAF1040F3CD0504668E7002623E03448D2
:101AC000801D0088334931F81610884201D10FFA81
:101AD00086F94E4515D02F4931F816002E49FFF7EB
:101AE00001FF8046B8F1010F0BD02A4931F81600EA
:101AF00029490988FFF7B6FE0746042F01D038466A
:101B000044E7701C86B2032ED9DB00212048FFF782
:101B10002FF98246BAF1040F01D0504636E71A4831
:101B2000FFF726F88246BAF1040F01D050462DE7A0
:101B300008E0FFF77EFE8246BAF1040F01D050465E
:101B400024E700BF00BF042020E710B5FFF7FBFE2D
:101B50000446FFF740FE204610BD2DE9F84F04462D
:101B60000D4604260D4F0848103000904FF0000835
:101B70004FF000094FF0000A4FF0000B0020FFF774
:101B800001FE80460CE00000F0FF00084400002049
:101B9000F00701081E00002040000020FF0301089C
:101BA000B8F1010F03D1374F3748009009E0B8F181
:101BB000000F03D1344F3348009002E0AB20BDE862
:101BC000F88F4EF6EE613846FFF7D2F80646042E3F
:101BD00001D03046F3E7FFF7FEFD29462046FFF728
:101BE00041FE8246BAF1040F01D05046E7E74FF0BC
:101BF00000091FE0254830F81900A04216D02349FB
:101C000031F819002249FFF76DFE8346BBF1010F41
:101C10000CD01E4931F819001D490988FFF722FE32
:101C20008246BAF1040F01D05046C8E709F101001D
:101C30001FFA80F9B9F1030FDCDB0098FEF798FF7B
:101C40000646042E01D03046B9E700213846FFF79A
:101C50008FF80646042E01D03046B0E73046AEE796
:101C600070B504460D46002629462046FFF7FAFDCA
:101C70000646802E04D129462046FFF76EFF064611
:101C8000304670BDF0FF0008F00701081E0000207C
:101C90004000002008B501210C20FFF7F5FCC02012
:101CA000ADF8000010208DF8030003208DF802002D
:101CB00069461648FFF73EFAC0211448FFF7E2FADA
:101CC0000620ADF8000010208DF8030003208DF8E9
:101CD000020069460E48FFF72DFA06210C48FFF76F
:101CE000D1FA0120ADF8000048208DF803006946C4
:101CF0000748FFF71FFA6020ADF8000048208DF874
:101D0000030069460248FFF715FA08BD000C0140C0
:101D10000008014000B587B001214FF40270FFF7C1
:101D2000B3FC4FF40040FFF713FC0320ADF80400B0
:101D300000208DF8070001A92E48FFF7FBF92E4877
:101D4000FEF79AFC002002908DF80C008DF80D0033
:101D50004FF4602004900020059001208DF81800B9
:101D600002A92548FEF7AFFC01212348FEF7D6FC67
:101D70002148FEF7F5FC00BF1F48FEF7F6FC0028DF
:101D8000FAD11D48FEF7FBFC00BF1B48FEF7FCFC28
:101D90000028FAD107B000BD10B504460723012280
:101DA00021461548FEF725FD01211348FEF7F6FCF4
:101DB00000BF02211048FEF745FE0028F9D00E486A
:101DC000FEF77CFD10BD2DE9F04104460D460026CE
:101DD000002708E02046FFF7DFFF06440520FEF756
:101DE00004FA781CC7B2AF42F4DBB6FBF5F080B260
:101DF000BDE8F081000C0140002401407047000064
:101E00000FB4054A054910B503AB7944029800F0B8
:101E100010F810BC5DF814FB0400002051E4FFFF33
:101E2000704770477047704701694A1C0261087823
:101E3000704710B50C46194690B0CDE90242002219
:101E40000692044A7A44CDE9042001A800F004F87F
:101E500010B010BDE1FFFFFF2DE9F0410646002460
:101E6000D0E90178C56802E04146B847641C3046B5
:101E7000A8470028F8D12046BDE8F081754600F05B
:101E800029F8AE4605006946534620F0070085460E
:101E900018B020B5FEF784F9BDE820404FF00006E9
:101EA0004FF000074FF000084FF0000B21F0070142
:101EB000AC46ACE8C009ACE8C009ACE8C009ACE885
:101EC000C0098D4670470446AFF300802046FEF7F8
:101ED00056F90000004870474800002002494FF0C2
:101EE000000000F00CBD00000000F87F02494FF038
:101EF000000000F004BD00000000F87F4FEAC1239D
:101F000003B40A1543EA505318BF43F000430CD4FE
:101F1000A2F56072D2F19E0211DBFF2ACCBF002134
:101F200023FA02F1084602B0704701F1804212F52F
:101F3000801F80F204804FF0000002B0704703BCA5
:101F4000DFF828C0012841EB010313F5001F88BF0B
:101F50004CF4803C3FF6CAAF3CBF6FEAE17070477B
:101F6000AFF300806FEAE17070470000E800020400
:101F700010F0004314BF4142014643F08043B1FAE0
:101F800081FC03F1F87311FA0CF1A3EB0C534FEA47
:101F9000415008BF704703EBE12170474FF0804389
:101FA0000146FFF7ECBF0000DFF8B4C170B53CEAB2
:101FB000111E18BF3CEA131E00F0A68081EA03053B
:101FC0000CEA111E4EEAD57E1CEA131518BF11EA61
:101FD0000C1F00F08F80AE4421EA4C1123EA4C1311
:101FE000AEF17F7E41F4801143F48013A1FB024CDB
:101FF000A0FB0365361955EB0C05A1FB034C4CF116
:102000000003A0FB021C16EB0C06654153F1000314
:10201000094218BF46F001064FF0140CB3F5007FDB
:102020004CF1000CCCF1200425FA0CF203FA04F177
:1020300041EA020105FA04F026FA0CF240EA020035
:102040006FF0030242EB2E4216FA04F401EB025544
:1020500085EACE7115D05FEA440C38BF4FF040449A
:102060000FD308BF43F0004350F1000041F10001DD
:1020700010EAD37F4FF0804420EAD37018BF4FF0AE
:10208000404415F0004FDFF8DCC017D415EA0C0F00
:1020900018BF3CEA010C11D070BD5FEACE7454BF8A
:1020A0001CF4000F1CF4800F0ABF4FF080444FF067
:1020B000404410F1010041F10001E2E7BEF1806F00
:1020C000A2BFA1F1C04144F0130C4CF0805CBDE80C
:1020D000704006DA4FF0000001F1C04101F000410C
:1020E00070476FF0000041EA500181EA10314FF073
:1020F000000070474FEACE714FF0000070BD4FEA0C
:10210000CE714FF0000070BD4FEA4105B5EB4C1F9A
:102110004FEA430608BF002898BFB6EB4C1F08BF24
:10212000002ABDE87040DFF840C03FF6D7AEAFF3FD
:1021300000804FF4001CBCEB410F98BFBCEB430F79
:102140000AD84FF0000081EA030101F0004141F09C
:10215000FE4141F47001704704494FF000007047A0
:102160000000FF070000F07F130000040000F87F6C
:10217000094248BF4CF4803C4FF4C0634FEA11520F
:1021800003F1010321EA025122F400629A1A48BFC6
:102190006FF0FE0241F48011352A3CD830D0152A68
:1021A0001ED3203A0CD90028C2F1200321FA02F0F4
:1021B00001FA03F218BF42F001024FF0000130E0D3
:1021C000C2F1000302F1200201FA03F120FA02F247
:1021D00041EA020100FA03F208464FF0000120E054
:1021E000C2F1200310B400FA03F401FA03F320FA59
:1021F00002F021FA02F1224610BC43EA000010E08E
:1022000050EA01324FF000004FF000014FF0004261
:1022100018BF521C05E04FF001024FF000014FF0D3
:1022200000001CF4803F2CF4803C18BF41F00041BA
:10223000124208BF7047520003D303D0401C41F143
:10224000000170475FEAAC72F8D4FAD1401C41F14A
:10225000000120F00100F4E77047704790EA010F99
:1022600048BF81F0004100F17C82421A3CBF801AD5
:1022700089184FEAD0524FF07F4C1CEA410FA2EB75
:10228000D15318BF9CEA026F00F040804FF0004C21
:102290004CEA00204CEA012121FA03FC10EB0C0C63
:1022A00023D202F1FF325FEA1C2040EBC25038BF5C
:1022B00070471CF07F0F4FEA400C18BFBCF17F4FF6
:1022C00038BF7047C3F12003994008BF20F00100D8
:1022D000BCF17F4F38BF7047A0F1C0404FF0FF0105
:1022E00041EAD0514FEAC15070474FEA3C00000A22
:1022F00040EBC25028BF1CF0FF0F4FEA400CE1D06A
:1023000018BFBCF17F4F38BF7047E5E79CEA026F0A
:1023100005D010EA5C0F08BF00F000407047BCEB2E
:10232000410F4FEA400228BF9445DFF828C0C0F0B3
:102330001580AFF30080B2EB410F05D012F1807F22
:1023400008BF70470846704790EA010F58BF7047B2
:1023500001487047010000040000C07F014800F000
:10236000CEBA00000000C07F014800F0C8BA0000EB
:102370000000C07F4FF47F0C1CEAD0121EBF1CEA85
:10238000D11392EA0C0F93EA0C0F00F0A58090EAAB
:10239000010F48BF42F4807240F4000C41F4000089
:1023A0002CF07F4120F07F4000B58142A2EB030278
:1023B0000FF2401CACEB504EC0F100009EF800E064
:1023C0004FEA4E0E00FB0EFC38BF49004FEA2C1CB2
:1023D00002F5FA020CFB0EF34FEACE1E4FEA112C67
:1023E0004FEAC1210EEB635E0EFB0CFC4FEA1C535F
:1023F00000FB03114FEA112C4FEA01310EFB0CFCDC
:1024000002F4807E42EB22424FEADC4C00FB0C11CE
:10241000C14228BF09184CEB0333012924BF4EF0F9
:10242000020E4EF0804E10EB410F24BF4EF0010E15
:102430004EF0804E08BF4EF0040E4EF008015DF8DD
:1024400004EB43EBC25018BFB2F57C0F38BF7047A6
:1024500041EAC07108BF20F00100B2F57C0F38BF1F
:10246000704729D512F0F00F1CBF00F1C04000F0FA
:1024700000407047008182838485868788898B8CA1
:102480008D8E8F919293959697999A9C9D9FA0A2DD
:10249000A3A5A7A8AAACAEB0B2B3B5B7B9BCBEC02D
:1024A000C2C5C7C9CCCED1D4D7D9DCDFE2E6E9ECCE
:1024B000F0F3F7FAFE0000004FEA400C0CF1807CCC
:1024C000BCF17E4F28BF7047B0F1C0404FF07F4055
:1024D0004CBF40104008704790EA010F0CEAD1133E
:1024E00048BF42F48072624538BF634507D213F497
:1024F0007F0F23D080EA010000F0004070474FF0CA
:10250000807C1CEB400F98BF1CEB410FDFF840C0F4
:102510003FF624AFAFF300804FF0807C1CEB400F00
:1025200002BF1CEB410F0B4870471CEB410F0CBF67
:10253000002020F0004040EAC250704712F47F0FA4
:1025400004BF0448704742F0FF004FEAC050704794
:10255000040000040000C07FC2154FEA002318BF2A
:1025600043F0004305D4D2F19E020AD323FA02F0CD
:1025700070474FEA4001B1F1FE4F02D24FF0000028
:102580007047DFF828C04FEA4001B1F17F4F88BFA4
:102590004CF4803C3FF6E8AE1CBF6FEAE070704739
:1025A000AFF300806FEAE07070470000680002043B
:1025B00010F0004218BF404242F08042B0FA80F171
:1025C0008840A2EBC15202F1786208BF7047410611
:1025D00042EB202018BF5FF0806C28BF20F0010084
:1025E00070474FF08042FFF7E9BF00004FF47F0CC7
:1025F0001CEAD0121EBF1CEAD11392EA0C0F93EA18
:102600000C0F00F04A8090EA010F48BF42F480723C
:102610004FF0004C4CEA00204CEA01211A44A0FB88
:1026200001C3A2F50002BCF1000F18BF43F0010383
:1026300002F4807CB3F1004F38BF5B0042EB2242D2
:10264000180A40EBC25028BF13F07F0F18BFB2F535
:102650007C0F38BF704708BF20F00100B2F57C0F37
:1026600038BF70470BD582F0FF0212F5803FC8BF1C
:10267000704700F1C040D8BF00F00040704700F53F
:10268000000C5FEA4C0C48BF7047B0F1C0404FF0FF
:102690007F404CBF40104008704790EA010F0CEAA1
:1026A000D11348BF42F48072624538BF634504D2FB
:1026B00080EA010000F0004070474FF0807C1CEB86
:1026C000400F98BF1CEB410F4FF0030C4CF0806C97
:1026D0003FF644AEAFF3008012F47F0F1FBF13F438
:1026E0007F0F42F0FF02D00570470148704700009D
:1026F0000000C07F10B412F47F0F4FEA00204FEAB1
:10270000012110D1B0FA80F400FA04F0A2EB0442E7
:1027100013F47F0F02F5803218BF41F0004100D062
:1027200010BC18BF604740F00040B1FA81F401FAD4
:1027300004F1A3EB044310BC03F58033604780F041
:10274000004090EA010F7FF590AD81F0004100F06C
:1027500008B8000090EA010F48BF81F000413FF542
:1027600084AD421A3EBF82F00042801A89184FEAB7
:10277000D0524FF07F4C1CEA410FA2EBD15318BF4F
:102780009CEA026F4FD04FF0004C4CEA00204CEA1C
:10279000012121FA03FCB0EB0C0C0FD412F0FE0F58
:1027A00018BF5FEA4C001DD5001240EBC25038BF85
:1027B00070471CF03F0F18BF70470BE0A2F10102F9
:1027C0005FEA1C2040EBC25038BF70471CF07F0FFF
:1027D00018BF7047C3F12003994014BF401E20F07A
:1027E000010070474FEA122316D0004204BF0020B8
:1027F00070474FEA9000B0FA80FCA2EB0C02CCF1DB
:10280000280C60FA0CF093EA122F04BF00EBC250C0
:1028100070474FEAC37070475FEADC1008BF70472B
:102820004FEAC37070479CEA026F04D010EA5C0F55
:1028300008BF00207047BCEB410F4FEA400228BFA1
:102840009445DFF82CC0FFF489ADAFF30080B2EB04
:10285000410F06D012F1807F08BF704781F0004021
:10286000704790EA010F48BF704702487047000068
:10287000020000040000C07F00F0004343EAD05390
:1028800023F48073C3F1C10323F0004117291FD83B
:10289000C3F1200310FA03F1C3F1200320F07F40BD
:1028A00040F4000020FA03F003F0004340EA030084
:1028B0000DD00B46590009D318BF401C06D17FEA42
:1028C000E27398BF401C38BF20F00100704770478A
:1028D000182903EB912318BF6FF00041013168BF45
:1028E00003F0004009D6400203F0004000F101006F
:1028F00004BF12F0004F20F00100704770470CF049
:102900000F03092B08BF082000F02B800A2B0BD0E7
:10291000082B18BF704708BF1CF0400F0AD04FF0BB
:1029200000004FF0000170471CF0400F18BF4FF03F
:10293000004070471CF0100F08D020F0704300F0EA
:102940007F4242EAD3014FEA4370704700F0604093
:1029500021F07F4242EA000201F07F4040EA7270BB
:1029600070471CF4801F11D01CF4E02F03D06FEAD5
:10297000CC31490070474FF04050EFF3008222F015
:10298000704242EA000282F3008870474FF0000074
:1029900070470000B4290008000000204800000033
:1029A00028010008FC2900084800002060020000FF
:1029B00044010008000000000000000000A24A04DA
:1029C00000000000000000000102030406070809DF
:1029D0000000555566667777000000000000000093
:1029E00000000102030401020304060708090204AF
:0C29F000060800000000000000000000CD
:04000005080000ED02
:00000001FF
